{
  "contractName": "NotarizedFiles",
  "abi": [
    {
      "constant": true,
      "inputs": [
        {
          "name": "",
          "type": "bytes32"
        }
      ],
      "name": "notarizedFiles",
      "outputs": [
        {
          "name": "name",
          "type": "string"
        },
        {
          "name": "fileUrl",
          "type": "string"
        },
        {
          "name": "timestamp",
          "type": "uint256"
        }
      ],
      "payable": false,
      "stateMutability": "view",
      "type": "function"
    },
    {
      "constant": true,
      "inputs": [
        {
          "name": "",
          "type": "uint256"
        }
      ],
      "name": "filesByHash",
      "outputs": [
        {
          "name": "",
          "type": "bytes32"
        }
      ],
      "payable": false,
      "stateMutability": "view",
      "type": "function"
    },
    {
      "anonymous": false,
      "inputs": [
        {
          "indexed": false,
          "name": "notarizedHash",
          "type": "bytes32"
        }
      ],
      "name": "FileAdded",
      "type": "event"
    },
    {
      "anonymous": false,
      "inputs": [
        {
          "indexed": false,
          "name": "notarizedHash",
          "type": "bytes32"
        }
      ],
      "name": "FileRemoved",
      "type": "event"
    },
    {
      "constant": false,
      "inputs": [
        {
          "name": "_notarizedHash",
          "type": "bytes32"
        },
        {
          "name": "_name",
          "type": "string"
        },
        {
          "name": "_fileUrl",
          "type": "string"
        }
      ],
      "name": "addFile",
      "outputs": [
        {
          "name": "",
          "type": "bool"
        }
      ],
      "payable": false,
      "stateMutability": "nonpayable",
      "type": "function"
    },
    {
      "constant": false,
      "inputs": [
        {
          "name": "_notarizedHash",
          "type": "bytes32"
        }
      ],
      "name": "removeFile",
      "outputs": [],
      "payable": false,
      "stateMutability": "nonpayable",
      "type": "function"
    },
    {
      "constant": true,
      "inputs": [],
      "name": "getNumberOfFiles",
      "outputs": [
        {
          "name": "",
          "type": "uint256"
        }
      ],
      "payable": false,
      "stateMutability": "view",
      "type": "function"
    },
    {
      "constant": true,
      "inputs": [
        {
          "name": "_notarizedHash",
          "type": "bytes32"
        }
      ],
      "name": "getFileByHash",
      "outputs": [
        {
          "name": "",
          "type": "string"
        },
        {
          "name": "",
          "type": "string"
        },
        {
          "name": "",
          "type": "uint256"
        }
      ],
      "payable": false,
      "stateMutability": "view",
      "type": "function"
    }
  ],
  "bytecode": "0x608060405234801561001057600080fd5b50610fc2806100206000396000f300608060405260043610610078576000357c0100000000000000000000000000000000000000000000000000000000900463ffffffff1680630bef429b1461007d5780631442885b146100ae57806357d8b0f6146101cb5780635e0b88e5146102e85780638ba73fa414610361578063fbc65775146103aa575b600080fd5b34801561008957600080fd5b506100ac60048036038101908080356000191690602001909291905050506103d5565b005b3480156100ba57600080fd5b506100dd60048036038101908080356000191690602001909291905050506105de565b604051808060200180602001848152602001838103835286818151815260200191508051906020019080838360005b8381101561012757808201518184015260208101905061010c565b50505050905090810190601f1680156101545780820380516001836020036101000a031916815260200191505b50838103825285818151815260200191508051906020019080838360005b8381101561018d578082015181840152602081019050610172565b50505050905090810190601f1680156101ba5780820380516001836020036101000a031916815260200191505b509550505050505060405180910390f35b3480156101d757600080fd5b506101fa6004803603810190808035600019169060200190929190505050610738565b604051808060200180602001848152602001838103835286818151815260200191508051906020019080838360005b83811015610244578082015181840152602081019050610229565b50505050905090810190601f1680156102715780820380516001836020036101000a031916815260200191505b50838103825285818151815260200191508051906020019080838360005b838110156102aa57808201518184015260208101905061028f565b50505050905090810190601f1680156102d75780820380516001836020036101000a031916815260200191505b509550505050505060405180910390f35b3480156102f457600080fd5b5061034760048036038101908080356000191690602001909291908035906020019082018035906020019190919293919293908035906020019082018035906020019190919293919293905050506109f3565b604051808215151515815260200191505060405180910390f35b34801561036d57600080fd5b5061038c60048036038101908080359060200190929190505050610d22565b60405180826000191660001916815260200191505060405180910390f35b3480156103b657600080fd5b506103bf610d45565b6040518082815260200191505060405180910390f35b6000602060ff1614151515610452576040517f08c379a00000000000000000000000000000000000000000000000000000000081526004018080602001828103825260148152602001807f456c20686173682065732072657175657269646f00000000000000000000000081525060200191505060405180910390fd5b600060016000836000191660001916815260200190815260200160002060020154141515156104e9576040517f08c379a00000000000000000000000000000000000000000000000000000000081526004018080602001828103825260148152602001807f456c206172636869766f206e6f2065786973746500000000000000000000000081525060200191505060405180910390fd5b6020604051908101604052806000815250600160008360001916600019168152602001908152602001600020600001908051906020019061052b929190610dfe565b506020604051908101604052806000815250600160008360001916600019168152602001908152602001600020600101908051906020019061056e929190610dfe565b5060006001600083600019166000191681526020019081526020016000206002018190555061059c81610d51565b7fdb285357396016c282675b7ceb7d91b2af02f76abd0755d82889ad45473cad318160405180826000191660001916815260200191505060405180910390a150565b6001602052806000526040600020600091509050806000018054600181600116156101000203166002900480601f01602080910402602001604051908101604052809291908181526020018280546001816001161561010002031660029004801561068a5780601f1061065f5761010080835404028352916020019161068a565b820191906000526020600020905b81548152906001019060200180831161066d57829003601f168201915b505050505090806001018054600181600116156101000203166002900480601f0160208091040260200160405190810160405280929190818152602001828054600181600116156101000203166002900480156107285780601f106106fd57610100808354040283529160200191610728565b820191906000526020600020905b81548152906001019060200180831161070b57829003601f168201915b5050505050908060020154905083565b6060806000610745610e7e565b6000602060ff16141515156107c2576040517f08c379a00000000000000000000000000000000000000000000000000000000081526004018080602001828103825260148152602001807f456c20686173682065732072657175657269646f00000000000000000000000081525060200191505060405180910390fd5b60006001600087600019166000191681526020019081526020016000206002015414151515610859576040517f08c379a00000000000000000000000000000000000000000000000000000000081526004018080602001828103825260148152602001807f456c206172636869766f206e6f2065786973746500000000000000000000000081525060200191505060405180910390fd5b60016000866000191660001916815260200190815260200160002060606040519081016040529081600082018054600181600116156101000203166002900480601f0160208091040260200160405190810160405280929190818152602001828054600181600116156101000203166002900480156109195780601f106108ee57610100808354040283529160200191610919565b820191906000526020600020905b8154815290600101906020018083116108fc57829003601f168201915b50505050508152602001600182018054600181600116156101000203166002900480601f0160208091040260200160405190810160405280929190818152602001828054600181600116156101000203166002900480156109bb5780601f10610990576101008083540402835291602001916109bb565b820191906000526020600020905b81548152906001019060200180831161099e57829003601f168201915b505050505081526020016002820154815250509050806000015181602001518260400151829250819150935093509350509193909250565b6000808585905014151515610a70576040517f08c379a00000000000000000000000000000000000000000000000000000000081526004018080602001828103825260168152602001807f456c206e6f6d627265206573207265717565726964610000000000000000000081525060200191505060405180910390fd5b60008383905014151515610aec576040517f08c379a00000000000000000000000000000000000000000000000000000000081526004018080602001828103825260138152602001807f4c612055524c206573207265717565726964610000000000000000000000000081525060200191505060405180910390fd5b6000602060ff1614151515610b69576040517f08c379a00000000000000000000000000000000000000000000000000000000081526004018080602001828103825260148152602001807f456c20686173682065732072657175657269646f00000000000000000000000081525060200191505060405180910390fd5b600060016000886000191660001916815260200190815260200160002060020154141515610c25576040517f08c379a00000000000000000000000000000000000000000000000000000000081526004018080602001828103825260238152602001807f456c206172636869766f2066756520616772656761646f207072657669616d6581526020017f6e7465000000000000000000000000000000000000000000000000000000000081525060400191505060405180910390fd5b84846001600089600019166000191681526020019081526020016000206000019190610c52929190610ea0565b5082826001600089600019166000191681526020019081526020016000206001019190610c80929190610ea0565b50426001600088600019166000191681526020019081526020016000206002018190555060008690806001815401808255809150509060018203906000526020600020016000909192909190915090600019169055507fd01c63f5d4ce61db3d5e172c3bd75dec6e87355101281e1d4384947e60bbb54e8660405180826000191660001916815260200191505060405180910390a16001905095945050505050565b600081815481101515610d3157fe5b906000526020600020016000915090505481565b60008080549050905090565b6000806000805490509150600090505b81811015610df8578260001916600082815481101515610d7d57fe5b9060005260206000200154600019161415610deb57600060018303815481101515610da457fe5b9060005260206000200154600082815481101515610dbe57fe5b9060005260206000200181600019169055506000805480919060019003610de59190610f20565b50610df9565b8080600101915050610d61565b5b505050565b828054600181600116156101000203166002900490600052602060002090601f016020900481019282601f10610e3f57805160ff1916838001178555610e6d565b82800160010185558215610e6d579182015b82811115610e6c578251825591602001919060010190610e51565b5b509050610e7a9190610f4c565b5090565b6060604051908101604052806060815260200160608152602001600081525090565b828054600181600116156101000203166002900490600052602060002090601f016020900481019282601f10610ee157803560ff1916838001178555610f0f565b82800160010185558215610f0f579182015b82811115610f0e578235825591602001919060010190610ef3565b5b509050610f1c9190610f4c565b5090565b815481835581811115610f4757818360005260206000209182019101610f469190610f71565b5b505050565b610f6e91905b80821115610f6a576000816000905550600101610f52565b5090565b90565b610f9391905b80821115610f8f576000816000905550600101610f77565b5090565b905600a165627a7a72305820033bdbc394950b20457c22bf0b44d2a0486b6db193fa9bfadbed3272b0d28ad80029",
  "source": "pragma solidity ^0.4.24;\n\ncontract NotarizedFiles {\n\n    struct NotarizedFile {\n        string name;\n        string fileUrl;\n        uint256 timestamp;\n    }\n\n    bytes32[] public filesByHash;\n    mapping (bytes32 => NotarizedFile) public notarizedFiles;\n\n    event FileAdded(bytes32 notarizedHash);\n    event FileRemoved(bytes32 notarizedHash);\n\n    /**\n     * @notice Agrega archivos notaizados en el mapping (notarizedFiles)\n     * y en el arreglo (filesByHash).\n     * @param _notarizedHash El sha256 del archivo subido.\n     * @param _name El nombre del usuario que subio el archivo.\n     * @param _fileUrl La url donde se encuentra fisicamente del archivo.\n     * @return Retorna true si los datos fueron persistidos.\n     */\n    function addFile(bytes32 _notarizedHash, string _name, string _fileUrl)\n        external returns(bool)\n    {\n        require(bytes(_name).length != 0, \"El nombre es requerida\");\n        require(bytes(_fileUrl).length != 0, \"La URL es requerida\");\n        require(_notarizedHash.length != 0, \"El hash es requerido\");\n        require(notarizedFiles[_notarizedHash].timestamp == 0, \"El archivo fue agregado previamente\");\n\n        notarizedFiles[_notarizedHash].name = _name;\n        notarizedFiles[_notarizedHash].fileUrl = _fileUrl;\n        notarizedFiles[_notarizedHash].timestamp = now;\n        filesByHash.push(_notarizedHash);\n\n        emit FileAdded(_notarizedHash);\n        return true;\n    }\n\n    function removeFile(bytes32 _notarizedHash) external {\n        require(_notarizedHash.length != 0, \"El hash es requerido\");\n        require(notarizedFiles[_notarizedHash].timestamp != 0, \"El archivo no existe\");\n\n        notarizedFiles[_notarizedHash].name = \"\";\n        notarizedFiles[_notarizedHash].fileUrl = \"\";\n        notarizedFiles[_notarizedHash].timestamp = 0;\n        _removeHash(_notarizedHash);\n\n        emit FileRemoved(_notarizedHash);\n    }\n\n    /**\n     * @notice Esta funcion es para consultar la cantidad de archivos agregados.\n     * @dev Sirve para poder iterar el arreglo que tiene todos los archivos desde la Dapp.\n     * @return Retorna la cantindad de archivos.\n     */\n    function getNumberOfFiles() external view returns(uint256) {\n        return filesByHash.length;\n    }\n\n    function getFileByHash(bytes32 _notarizedHash) external view\n        returns(string, string, uint256)\n    {\n        require(_notarizedHash.length != 0, \"El hash es requerido\");\n        require(notarizedFiles[_notarizedHash].timestamp != 0, \"El archivo no existe\");\n\n        NotarizedFile memory notarizedFile = notarizedFiles[_notarizedHash];\n        return (\n            notarizedFile.name,\n            notarizedFile.fileUrl,\n            notarizedFile.timestamp\n        );\n    }\n\n    function _removeHash(bytes32 _hash) private {\n        uint length = filesByHash.length;\n        for (uint i = 0; i < length; i++) {\n            if (filesByHash[i] == _hash) {\n                filesByHash[i] = filesByHash[length-1];\n                filesByHash.length--;\n                return;\n            }\n        }\n    }\n}\n",
  "sourcePath": "/Users/ldeleon/facultad/tesina/blockchain/tesina/contratos/contracts/NotarizedFiles.sol",
  "compiler": {
    "name": "solc",
    "version": "0.4.24+commit.e67f0147.Emscripten.clang"
  },
  "schemaVersion": "2.0.1",
  "updatedAt": "2018-10-11T17:44:39.715Z"
}